{
  "_format": "hh-sol-artifact-1",
  "contractName": "BCMedical1",
  "sourceName": "contracts/BCMedical1.sol",
  "abi": [
    {
      "inputs": [],
      "stateMutability": "nonpayable",
      "type": "constructor"
    },
    {
      "anonymous": false,
      "inputs": [
        {
          "indexed": false,
          "internalType": "address",
          "name": "admin",
          "type": "address"
        },
        {
          "indexed": false,
          "internalType": "address",
          "name": "doctor",
          "type": "address"
        }
      ],
      "name": "DrDetailsAdded",
      "type": "event"
    },
    {
      "anonymous": false,
      "inputs": [
        {
          "indexed": false,
          "internalType": "address",
          "name": "dr",
          "type": "address"
        },
        {
          "indexed": false,
          "internalType": "address",
          "name": "patient",
          "type": "address"
        }
      ],
      "name": "GrantAccessToDr",
      "type": "event"
    },
    {
      "anonymous": false,
      "inputs": [
        {
          "indexed": false,
          "internalType": "address",
          "name": "dr",
          "type": "address"
        },
        {
          "indexed": false,
          "internalType": "address",
          "name": "patient",
          "type": "address"
        }
      ],
      "name": "HealthRecordsAdded",
      "type": "event"
    },
    {
      "anonymous": false,
      "inputs": [
        {
          "indexed": false,
          "internalType": "address",
          "name": "admin",
          "type": "address"
        },
        {
          "indexed": false,
          "internalType": "address",
          "name": "patient",
          "type": "address"
        }
      ],
      "name": "PatientDetailsAdded",
      "type": "event"
    },
    {
      "inputs": [
        {
          "internalType": "address",
          "name": "_user",
          "type": "address"
        },
        {
          "internalType": "string",
          "name": "url",
          "type": "string"
        }
      ],
      "name": "add",
      "outputs": [],
      "stateMutability": "nonpayable",
      "type": "function"
    },
    {
      "inputs": [
        {
          "internalType": "address",
          "name": "_Id",
          "type": "address"
        }
      ],
      "name": "getDoctorDetails",
      "outputs": [
        {
          "internalType": "bool",
          "name": "_state",
          "type": "bool"
        },
        {
          "internalType": "address",
          "name": "_drId",
          "type": "address"
        },
        {
          "internalType": "string",
          "name": "_name",
          "type": "string"
        }
      ],
      "stateMutability": "view",
      "type": "function"
    },
    {
      "inputs": [
        {
          "internalType": "address",
          "name": "_dr",
          "type": "address"
        }
      ],
      "name": "getHealthRecords",
      "outputs": [
        {
          "internalType": "string",
          "name": "_drName",
          "type": "string"
        },
        {
          "internalType": "address",
          "name": "_drId",
          "type": "address"
        },
        {
          "internalType": "string",
          "name": "_paName",
          "type": "string"
        },
        {
          "internalType": "address",
          "name": "_paId",
          "type": "address"
        },
        {
          "internalType": "string",
          "name": "_prescription",
          "type": "string"
        },
        {
          "internalType": "string[]",
          "name": "_rec",
          "type": "string[]"
        }
      ],
      "stateMutability": "view",
      "type": "function"
    },
    {
      "inputs": [
        {
          "internalType": "address",
          "name": "_paId",
          "type": "address"
        }
      ],
      "name": "getHealthRecordsForDoctor",
      "outputs": [
        {
          "internalType": "string",
          "name": "_drName",
          "type": "string"
        },
        {
          "internalType": "address",
          "name": "_drId",
          "type": "address"
        },
        {
          "internalType": "string",
          "name": "_paName",
          "type": "string"
        },
        {
          "internalType": "address",
          "name": "_pId",
          "type": "address"
        },
        {
          "internalType": "string",
          "name": "_prescription",
          "type": "string"
        },
        {
          "internalType": "string[]",
          "name": "_rec",
          "type": "string[]"
        }
      ],
      "stateMutability": "view",
      "type": "function"
    },
    {
      "inputs": [
        {
          "internalType": "address",
          "name": "_Id",
          "type": "address"
        }
      ],
      "name": "getPatientDetails",
      "outputs": [
        {
          "internalType": "bool",
          "name": "_state",
          "type": "bool"
        },
        {
          "internalType": "address",
          "name": "_paId",
          "type": "address"
        },
        {
          "internalType": "string",
          "name": "_paName",
          "type": "string"
        },
        {
          "internalType": "string[]",
          "name": "_paRecords",
          "type": "string[]"
        }
      ],
      "stateMutability": "view",
      "type": "function"
    },
    {
      "inputs": [
        {
          "internalType": "address",
          "name": "doctor_id",
          "type": "address"
        },
        {
          "internalType": "uint256",
          "name": "access",
          "type": "uint256"
        }
      ],
      "name": "grantAccessToDoctor",
      "outputs": [],
      "stateMutability": "nonpayable",
      "type": "function"
    },
    {
      "inputs": [
        {
          "internalType": "bool",
          "name": "_state",
          "type": "bool"
        },
        {
          "internalType": "address",
          "name": "_drId",
          "type": "address"
        },
        {
          "internalType": "string",
          "name": "_name",
          "type": "string"
        }
      ],
      "name": "setDoctorDetails",
      "outputs": [],
      "stateMutability": "nonpayable",
      "type": "function"
    },
    {
      "inputs": [
        {
          "internalType": "string",
          "name": "_paName",
          "type": "string"
        },
        {
          "internalType": "address",
          "name": "_paId",
          "type": "address"
        },
        {
          "internalType": "string",
          "name": "_prescription",
          "type": "string"
        }
      ],
      "name": "setHealthRecordsDetails",
      "outputs": [],
      "stateMutability": "nonpayable",
      "type": "function"
    },
    {
      "inputs": [
        {
          "internalType": "bool",
          "name": "_state",
          "type": "bool"
        },
        {
          "internalType": "address",
          "name": "_paId",
          "type": "address"
        },
        {
          "internalType": "string",
          "name": "_paName",
          "type": "string"
        },
        {
          "internalType": "string[]",
          "name": "_paRecords",
          "type": "string[]"
        }
      ],
      "name": "setPatientDetails",
      "outputs": [],
      "stateMutability": "nonpayable",
      "type": "function"
    }
  ],
  "bytecode": "0x608060405234801561001057600080fd5b5033600460006101000a81548173ffffffffffffffffffffffffffffffffffffffff021916908373ffffffffffffffffffffffffffffffffffffffff16021790555061342e806100616000396000f3fe608060405234801561001057600080fd5b50600436106100935760003560e01c806380cfed0e1161006657806380cfed0e14610121578063bab90dbd1461013d578063c88f22a91461016f578063efe2ccc11461018b578063f83009ba146101be57610093565b806336d6da5514610098578063506f1773146100b457806371f61bfa146100d05780637827c01a146100ec575b600080fd5b6100b260048036038101906100ad919061272f565b6101f3565b005b6100ce60048036038101906100c991906127c1565b61026c565b005b6100ea60048036038101906100e5919061291f565b6103c0565b005b610106600480360381019061010191906129be565b6105a9565b60405161011896959493929190612b85565b60405180910390f35b61013b60048036038101906101369190612c02565b610c15565b005b610157600480360381019061015291906129be565b610dd4565b60405161016693929190612c80565b60405180910390f35b61018960048036038101906101849190612cbe565b610ff1565b005b6101a560048036038101906101a091906129be565b6119b1565b6040516101b59493929190612d49565b60405180910390f35b6101d860048036038101906101d391906129be565b611d73565b6040516101ea96959493929190612b85565b60405180910390f35b600160008373ffffffffffffffffffffffffffffffffffffffff1673ffffffffffffffffffffffffffffffffffffffff168152602001908152602001600020600201819080600181540180825580915050600190039060005260206000200160009091909190915090816102679190612fa8565b505050565b60011515600160003373ffffffffffffffffffffffffffffffffffffffff1673ffffffffffffffffffffffffffffffffffffffff16815260200190815260200160002060000160009054906101000a900460ff16151514610302576040517f08c379a00000000000000000000000000000000000000000000000000000000081526004016102f9906130c6565b60405180910390fd5b80600360003373ffffffffffffffffffffffffffffffffffffffff1673ffffffffffffffffffffffffffffffffffffffff16815260200190815260200160002060008473ffffffffffffffffffffffffffffffffffffffff1673ffffffffffffffffffffffffffffffffffffffff168152602001908152602001600020819055507f19dd02d0615ff9058c55159271b51d3d8ead87b40cc392e6dbeca6483cff333382336040516103b49291906130e6565b60405180910390a15050565b600115156000803373ffffffffffffffffffffffffffffffffffffffff1673ffffffffffffffffffffffffffffffffffffffff16815260200190815260200160002060000160009054906101000a900460ff16151514610455576040517f08c379a000000000000000000000000000000000000000000000000000000000815260040161044c9061315b565b60405180910390fd5b604051806080016040528085151581526020018473ffffffffffffffffffffffffffffffffffffffff16815260200183815260200182815250600160008573ffffffffffffffffffffffffffffffffffffffff1673ffffffffffffffffffffffffffffffffffffffff16815260200190815260200160002060008201518160000160006101000a81548160ff02191690831515021790555060208201518160000160016101000a81548173ffffffffffffffffffffffffffffffffffffffff021916908373ffffffffffffffffffffffffffffffffffffffff16021790555060408201518160010190816105499190612fa8565b50606082015181600201908051906020019061056692919061249d565b509050507f83c041d3aeb1dcb1f28cb15e20bdfee5ed1ca3740e487f9cab72e13eeb859505338460405161059b9291906130e6565b60405180910390a150505050565b606060006060600060608060011515600160003373ffffffffffffffffffffffffffffffffffffffff1673ffffffffffffffffffffffffffffffffffffffff16815260200190815260200160002060000160009054906101000a900460ff1615151461064a576040517f08c379a0000000000000000000000000000000000000000000000000000000008152600401610641906130c6565b60405180910390fd5b600260008873ffffffffffffffffffffffffffffffffffffffff1673ffffffffffffffffffffffffffffffffffffffff16815260200190815260200160002060003373ffffffffffffffffffffffffffffffffffffffff1673ffffffffffffffffffffffffffffffffffffffff16815260200190815260200160002060000160010180546106d790612dcb565b80601f016020809104026020016040519081016040528092919081815260200182805461070390612dcb565b80156107505780601f1061072557610100808354040283529160200191610750565b820191906000526020600020905b81548152906001019060200180831161073357829003601f168201915b50505050509550600260008873ffffffffffffffffffffffffffffffffffffffff1673ffffffffffffffffffffffffffffffffffffffff16815260200190815260200160002060003373ffffffffffffffffffffffffffffffffffffffff1673ffffffffffffffffffffffffffffffffffffffff16815260200190815260200160002060000160000160019054906101000a900473ffffffffffffffffffffffffffffffffffffffff169450600260008873ffffffffffffffffffffffffffffffffffffffff1673ffffffffffffffffffffffffffffffffffffffff16815260200190815260200160002060003373ffffffffffffffffffffffffffffffffffffffff1673ffffffffffffffffffffffffffffffffffffffff168152602001908152602001600020600201600101805461088990612dcb565b80601f01602080910402602001604051908101604052809291908181526020018280546108b590612dcb565b80156109025780601f106108d757610100808354040283529160200191610902565b820191906000526020600020905b8154815290600101906020018083116108e557829003601f168201915b50505050509350600260008873ffffffffffffffffffffffffffffffffffffffff1673ffffffffffffffffffffffffffffffffffffffff16815260200190815260200160002060003373ffffffffffffffffffffffffffffffffffffffff1673ffffffffffffffffffffffffffffffffffffffff16815260200190815260200160002060020160000160019054906101000a900473ffffffffffffffffffffffffffffffffffffffff169250600260008873ffffffffffffffffffffffffffffffffffffffff1673ffffffffffffffffffffffffffffffffffffffff16815260200190815260200160002060003373ffffffffffffffffffffffffffffffffffffffff1673ffffffffffffffffffffffffffffffffffffffff1681526020019081526020016000206005016000018054610a3b90612dcb565b80601f0160208091040260200160405190810160405280929190818152602001828054610a6790612dcb565b8015610ab45780601f10610a8957610100808354040283529160200191610ab4565b820191906000526020600020905b815481529060010190602001808311610a9757829003601f168201915b50505050509150600260008873ffffffffffffffffffffffffffffffffffffffff1673ffffffffffffffffffffffffffffffffffffffff16815260200190815260200160002060003373ffffffffffffffffffffffffffffffffffffffff1673ffffffffffffffffffffffffffffffffffffffff168152602001908152602001600020600601805480602002602001604051908101604052809291908181526020016000905b82821015610c06578382906000526020600020018054610b7990612dcb565b80601f0160208091040260200160405190810160405280929190818152602001828054610ba590612dcb565b8015610bf25780601f10610bc757610100808354040283529160200191610bf2565b820191906000526020600020905b815481529060010190602001808311610bd557829003601f168201915b505050505081526020019060010190610b5a565b50505050905091939550919395565b600460009054906101000a900473ffffffffffffffffffffffffffffffffffffffff1673ffffffffffffffffffffffffffffffffffffffff163373ffffffffffffffffffffffffffffffffffffffff1614610ca5576040517f08c379a0000000000000000000000000000000000000000000000000000000008152600401610c9c906131c7565b60405180910390fd5b604051806060016040528084151581526020018373ffffffffffffffffffffffffffffffffffffffff168152602001828152506000808473ffffffffffffffffffffffffffffffffffffffff1673ffffffffffffffffffffffffffffffffffffffff16815260200190815260200160002060008201518160000160006101000a81548160ff02191690831515021790555060208201518160000160016101000a81548173ffffffffffffffffffffffffffffffffffffffff021916908373ffffffffffffffffffffffffffffffffffffffff1602179055506040820151816001019081610d929190612fa8565b509050507f83c041d3aeb1dcb1f28cb15e20bdfee5ed1ca3740e487f9cab72e13eeb8595053383604051610dc79291906130e6565b60405180910390a1505050565b6000806060600460009054906101000a900473ffffffffffffffffffffffffffffffffffffffff1673ffffffffffffffffffffffffffffffffffffffff163373ffffffffffffffffffffffffffffffffffffffff1614610e69576040517f08c379a0000000000000000000000000000000000000000000000000000000008152600401610e60906131c7565b60405180910390fd5b6000808573ffffffffffffffffffffffffffffffffffffffff1673ffffffffffffffffffffffffffffffffffffffff16815260200190815260200160002060000160009054906101000a900460ff1692506000808573ffffffffffffffffffffffffffffffffffffffff1673ffffffffffffffffffffffffffffffffffffffff16815260200190815260200160002060000160019054906101000a900473ffffffffffffffffffffffffffffffffffffffff1691506000808573ffffffffffffffffffffffffffffffffffffffff1673ffffffffffffffffffffffffffffffffffffffff1681526020019081526020016000206001018054610f6a90612dcb565b80601f0160208091040260200160405190810160405280929190818152602001828054610f9690612dcb565b8015610fe35780601f10610fb857610100808354040283529160200191610fe3565b820191906000526020600020905b815481529060010190602001808311610fc657829003601f168201915b505050505090509193909250565b600115156000803373ffffffffffffffffffffffffffffffffffffffff1673ffffffffffffffffffffffffffffffffffffffff16815260200190815260200160002060000160009054906101000a900460ff16151514611086576040517f08c379a000000000000000000000000000000000000000000000000000000000815260040161107d9061315b565b60405180910390fd5b6000803373ffffffffffffffffffffffffffffffffffffffff1673ffffffffffffffffffffffffffffffffffffffff168152602001908152602001600020600101600260003373ffffffffffffffffffffffffffffffffffffffff1673ffffffffffffffffffffffffffffffffffffffff16815260200190815260200160002060008473ffffffffffffffffffffffffffffffffffffffff1673ffffffffffffffffffffffffffffffffffffffff16815260200190815260200160002060000160010190816111559190613212565b506000803373ffffffffffffffffffffffffffffffffffffffff1673ffffffffffffffffffffffffffffffffffffffff16815260200190815260200160002060000160019054906101000a900473ffffffffffffffffffffffffffffffffffffffff16600260003373ffffffffffffffffffffffffffffffffffffffff1673ffffffffffffffffffffffffffffffffffffffff16815260200190815260200160002060008473ffffffffffffffffffffffffffffffffffffffff1673ffffffffffffffffffffffffffffffffffffffff16815260200190815260200160002060000160000160016101000a81548173ffffffffffffffffffffffffffffffffffffffff021916908373ffffffffffffffffffffffffffffffffffffffff1602179055506001600260003373ffffffffffffffffffffffffffffffffffffffff1673ffffffffffffffffffffffffffffffffffffffff16815260200190815260200160002060008473ffffffffffffffffffffffffffffffffffffffff1673ffffffffffffffffffffffffffffffffffffffff16815260200190815260200160002060020160000160006101000a81548160ff02191690831515021790555081600260003373ffffffffffffffffffffffffffffffffffffffff1673ffffffffffffffffffffffffffffffffffffffff16815260200190815260200160002060008473ffffffffffffffffffffffffffffffffffffffff1673ffffffffffffffffffffffffffffffffffffffff16815260200190815260200160002060020160000160016101000a81548173ffffffffffffffffffffffffffffffffffffffff021916908373ffffffffffffffffffffffffffffffffffffffff16021790555082600260003373ffffffffffffffffffffffffffffffffffffffff1673ffffffffffffffffffffffffffffffffffffffff16815260200190815260200160002060008473ffffffffffffffffffffffffffffffffffffffff1673ffffffffffffffffffffffffffffffffffffffff16815260200190815260200160002060020160010190816114639190612fa8565b5080600260003373ffffffffffffffffffffffffffffffffffffffff1673ffffffffffffffffffffffffffffffffffffffff16815260200190815260200160002060008473ffffffffffffffffffffffffffffffffffffffff1673ffffffffffffffffffffffffffffffffffffffff16815260200190815260200160002060050160000190816114f39190612fa8565b50600260003373ffffffffffffffffffffffffffffffffffffffff1673ffffffffffffffffffffffffffffffffffffffff16815260200190815260200160002060008373ffffffffffffffffffffffffffffffffffffffff1673ffffffffffffffffffffffffffffffffffffffff168152602001908152602001600020600601819080600181540180825580915050600190039060005260206000200160009091909190915090816115a59190612fa8565b50600160008373ffffffffffffffffffffffffffffffffffffffff1673ffffffffffffffffffffffffffffffffffffffff1681526020019081526020016000206002018190806001815401808255809150506001900390600052602060002001600090919091909150908161161a9190612fa8565b50611973600260003373ffffffffffffffffffffffffffffffffffffffff1673ffffffffffffffffffffffffffffffffffffffff16815260200190815260200160002060008473ffffffffffffffffffffffffffffffffffffffff1673ffffffffffffffffffffffffffffffffffffffff16815260200190815260200160002060020160000160009054906101000a900460ff16600260003373ffffffffffffffffffffffffffffffffffffffff1673ffffffffffffffffffffffffffffffffffffffff16815260200190815260200160002060008573ffffffffffffffffffffffffffffffffffffffff1673ffffffffffffffffffffffffffffffffffffffff16815260200190815260200160002060020160000160019054906101000a900473ffffffffffffffffffffffffffffffffffffffff16600260003373ffffffffffffffffffffffffffffffffffffffff1673ffffffffffffffffffffffffffffffffffffffff16815260200190815260200160002060008673ffffffffffffffffffffffffffffffffffffffff1673ffffffffffffffffffffffffffffffffffffffff16815260200190815260200160002060020160010180546117de90612dcb565b80601f016020809104026020016040519081016040528092919081815260200182805461180a90612dcb565b80156118575780601f1061182c57610100808354040283529160200191611857565b820191906000526020600020905b81548152906001019060200180831161183a57829003601f168201915b5050505050600160008773ffffffffffffffffffffffffffffffffffffffff1673ffffffffffffffffffffffffffffffffffffffff168152602001908152602001600020600201805480602002602001604051908101604052809291908181526020016000905b8282101561196a5783829060005260206000200180546118dd90612dcb565b80601f016020809104026020016040519081016040528092919081815260200182805461190990612dcb565b80156119565780601f1061192b57610100808354040283529160200191611956565b820191906000526020600020905b81548152906001019060200180831161193957829003601f168201915b5050505050815260200190600101906118be565b505050506103c0565b7ffd09d3da0077a9ed9d4af05531b2f844c840c94c1e6535e3d2a09a6ae1aa9a5233836040516119a49291906130e6565b60405180910390a1505050565b60008060608060011515600160003373ffffffffffffffffffffffffffffffffffffffff1673ffffffffffffffffffffffffffffffffffffffff16815260200190815260200160002060000160009054906101000a900460ff1615151480611a9557506001600360008773ffffffffffffffffffffffffffffffffffffffff1673ffffffffffffffffffffffffffffffffffffffff16815260200190815260200160002060003373ffffffffffffffffffffffffffffffffffffffff1673ffffffffffffffffffffffffffffffffffffffff16815260200190815260200160002054145b611ad4576040517f08c379a0000000000000000000000000000000000000000000000000000000008152600401611acb9061336c565b60405180910390fd5b600160008673ffffffffffffffffffffffffffffffffffffffff1673ffffffffffffffffffffffffffffffffffffffff16815260200190815260200160002060000160009054906101000a900460ff169350600160008673ffffffffffffffffffffffffffffffffffffffff1673ffffffffffffffffffffffffffffffffffffffff16815260200190815260200160002060000160019054906101000a900473ffffffffffffffffffffffffffffffffffffffff169250600160008673ffffffffffffffffffffffffffffffffffffffff1673ffffffffffffffffffffffffffffffffffffffff1681526020019081526020016000206001018054611bd890612dcb565b80601f0160208091040260200160405190810160405280929190818152602001828054611c0490612dcb565b8015611c515780601f10611c2657610100808354040283529160200191611c51565b820191906000526020600020905b815481529060010190602001808311611c3457829003601f168201915b50505050509150600160008673ffffffffffffffffffffffffffffffffffffffff1673ffffffffffffffffffffffffffffffffffffffff168152602001908152602001600020600201805480602002602001604051908101604052809291908181526020016000905b82821015611d66578382906000526020600020018054611cd990612dcb565b80601f0160208091040260200160405190810160405280929190818152602001828054611d0590612dcb565b8015611d525780601f10611d2757610100808354040283529160200191611d52565b820191906000526020600020905b815481529060010190602001808311611d3557829003601f168201915b505050505081526020019060010190611cba565b5050505090509193509193565b6060600060606000606080600115156000803373ffffffffffffffffffffffffffffffffffffffff1673ffffffffffffffffffffffffffffffffffffffff16815260200190815260200160002060000160009054906101000a900460ff16151514611e13576040517f08c379a0000000000000000000000000000000000000000000000000000000008152600401611e0a9061315b565b60405180910390fd5b6001600360008973ffffffffffffffffffffffffffffffffffffffff1673ffffffffffffffffffffffffffffffffffffffff16815260200190815260200160002060003373ffffffffffffffffffffffffffffffffffffffff1673ffffffffffffffffffffffffffffffffffffffff1681526020019081526020016000205414611ed2576040517f08c379a0000000000000000000000000000000000000000000000000000000008152600401611ec9906133d8565b60405180910390fd5b600260003373ffffffffffffffffffffffffffffffffffffffff1673ffffffffffffffffffffffffffffffffffffffff16815260200190815260200160002060008873ffffffffffffffffffffffffffffffffffffffff1673ffffffffffffffffffffffffffffffffffffffff1681526020019081526020016000206000016001018054611f5f90612dcb565b80601f0160208091040260200160405190810160405280929190818152602001828054611f8b90612dcb565b8015611fd85780601f10611fad57610100808354040283529160200191611fd8565b820191906000526020600020905b815481529060010190602001808311611fbb57829003601f168201915b50505050509550600260003373ffffffffffffffffffffffffffffffffffffffff1673ffffffffffffffffffffffffffffffffffffffff16815260200190815260200160002060008873ffffffffffffffffffffffffffffffffffffffff1673ffffffffffffffffffffffffffffffffffffffff16815260200190815260200160002060000160000160019054906101000a900473ffffffffffffffffffffffffffffffffffffffff169450600260003373ffffffffffffffffffffffffffffffffffffffff1673ffffffffffffffffffffffffffffffffffffffff16815260200190815260200160002060008873ffffffffffffffffffffffffffffffffffffffff1673ffffffffffffffffffffffffffffffffffffffff168152602001908152602001600020600201600101805461211190612dcb565b80601f016020809104026020016040519081016040528092919081815260200182805461213d90612dcb565b801561218a5780601f1061215f5761010080835404028352916020019161218a565b820191906000526020600020905b81548152906001019060200180831161216d57829003601f168201915b50505050509350600260003373ffffffffffffffffffffffffffffffffffffffff1673ffffffffffffffffffffffffffffffffffffffff16815260200190815260200160002060008873ffffffffffffffffffffffffffffffffffffffff1673ffffffffffffffffffffffffffffffffffffffff16815260200190815260200160002060020160000160019054906101000a900473ffffffffffffffffffffffffffffffffffffffff169250600260003373ffffffffffffffffffffffffffffffffffffffff1673ffffffffffffffffffffffffffffffffffffffff16815260200190815260200160002060008873ffffffffffffffffffffffffffffffffffffffff1673ffffffffffffffffffffffffffffffffffffffff16815260200190815260200160002060050160000180546122c390612dcb565b80601f01602080910402602001604051908101604052809291908181526020018280546122ef90612dcb565b801561233c5780601f106123115761010080835404028352916020019161233c565b820191906000526020600020905b81548152906001019060200180831161231f57829003601f168201915b50505050509150600260003373ffffffffffffffffffffffffffffffffffffffff1673ffffffffffffffffffffffffffffffffffffffff16815260200190815260200160002060008873ffffffffffffffffffffffffffffffffffffffff1673ffffffffffffffffffffffffffffffffffffffff168152602001908152602001600020600601805480602002602001604051908101604052809291908181526020016000905b8282101561248e57838290600052602060002001805461240190612dcb565b80601f016020809104026020016040519081016040528092919081815260200182805461242d90612dcb565b801561247a5780601f1061244f5761010080835404028352916020019161247a565b820191906000526020600020905b81548152906001019060200180831161245d57829003601f168201915b5050505050815260200190600101906123e2565b50505050905091939550919395565b8280548282559060005260206000209081019282156124e5579160200282015b828111156124e45782518290816124d49190612fa8565b50916020019190600101906124bd565b5b5090506124f291906124f6565b5090565b5b80821115612516576000818161250d919061251a565b506001016124f7565b5090565b50805461252690612dcb565b6000825580601f106125385750612557565b601f016020900490600052602060002090810190612556919061255a565b5b50565b5b8082111561257357600081600090555060010161255b565b5090565b6000604051905090565b600080fd5b600080fd5b600073ffffffffffffffffffffffffffffffffffffffff82169050919050565b60006125b68261258b565b9050919050565b6125c6816125ab565b81146125d157600080fd5b50565b6000813590506125e3816125bd565b92915050565b600080fd5b600080fd5b6000601f19601f8301169050919050565b7f4e487b7100000000000000000000000000000000000000000000000000000000600052604160045260246000fd5b61263c826125f3565b810181811067ffffffffffffffff8211171561265b5761265a612604565b5b80604052505050565b600061266e612577565b905061267a8282612633565b919050565b600067ffffffffffffffff82111561269a57612699612604565b5b6126a3826125f3565b9050602081019050919050565b82818337600083830152505050565b60006126d26126cd8461267f565b612664565b9050828152602081018484840111156126ee576126ed6125ee565b5b6126f98482856126b0565b509392505050565b600082601f830112612716576127156125e9565b5b81356127268482602086016126bf565b91505092915050565b6000806040838503121561274657612745612581565b5b6000612754858286016125d4565b925050602083013567ffffffffffffffff81111561277557612774612586565b5b61278185828601612701565b9150509250929050565b6000819050919050565b61279e8161278b565b81146127a957600080fd5b50565b6000813590506127bb81612795565b92915050565b600080604083850312156127d8576127d7612581565b5b60006127e6858286016125d4565b92505060206127f7858286016127ac565b9150509250929050565b60008115159050919050565b61281681612801565b811461282157600080fd5b50565b6000813590506128338161280d565b92915050565b600067ffffffffffffffff82111561285457612853612604565b5b602082029050602081019050919050565b600080fd5b600061287d61287884612839565b612664565b905080838252602082019050602084028301858111156128a05761289f612865565b5b835b818110156128e757803567ffffffffffffffff8111156128c5576128c46125e9565b5b8086016128d28982612701565b855260208501945050506020810190506128a2565b5050509392505050565b600082601f830112612906576129056125e9565b5b813561291684826020860161286a565b91505092915050565b6000806000806080858703121561293957612938612581565b5b600061294787828801612824565b9450506020612958878288016125d4565b935050604085013567ffffffffffffffff81111561297957612978612586565b5b61298587828801612701565b925050606085013567ffffffffffffffff8111156129a6576129a5612586565b5b6129b2878288016128f1565b91505092959194509250565b6000602082840312156129d4576129d3612581565b5b60006129e2848285016125d4565b91505092915050565b600081519050919050565b600082825260208201905092915050565b60005b83811015612a25578082015181840152602081019050612a0a565b60008484015250505050565b6000612a3c826129eb565b612a4681856129f6565b9350612a56818560208601612a07565b612a5f816125f3565b840191505092915050565b612a73816125ab565b82525050565b600081519050919050565b600082825260208201905092915050565b6000819050602082019050919050565b600082825260208201905092915050565b6000612ac1826129eb565b612acb8185612aa5565b9350612adb818560208601612a07565b612ae4816125f3565b840191505092915050565b6000612afb8383612ab6565b905092915050565b6000602082019050919050565b6000612b1b82612a79565b612b258185612a84565b935083602082028501612b3785612a95565b8060005b85811015612b735784840389528151612b548582612aef565b9450612b5f83612b03565b925060208a01995050600181019050612b3b565b50829750879550505050505092915050565b600060c0820190508181036000830152612b9f8189612a31565b9050612bae6020830188612a6a565b8181036040830152612bc08187612a31565b9050612bcf6060830186612a6a565b8181036080830152612be18185612a31565b905081810360a0830152612bf58184612b10565b9050979650505050505050565b600080600060608486031215612c1b57612c1a612581565b5b6000612c2986828701612824565b9350506020612c3a868287016125d4565b925050604084013567ffffffffffffffff811115612c5b57612c5a612586565b5b612c6786828701612701565b9150509250925092565b612c7a81612801565b82525050565b6000606082019050612c956000830186612c71565b612ca26020830185612a6a565b8181036040830152612cb48184612a31565b9050949350505050565b600080600060608486031215612cd757612cd6612581565b5b600084013567ffffffffffffffff811115612cf557612cf4612586565b5b612d0186828701612701565b9350506020612d12868287016125d4565b925050604084013567ffffffffffffffff811115612d3357612d32612586565b5b612d3f86828701612701565b9150509250925092565b6000608082019050612d5e6000830187612c71565b612d6b6020830186612a6a565b8181036040830152612d7d8185612a31565b90508181036060830152612d918184612b10565b905095945050505050565b7f4e487b7100000000000000000000000000000000000000000000000000000000600052602260045260246000fd5b60006002820490506001821680612de357607f821691505b602082108103612df657612df5612d9c565b5b50919050565b60008190508160005260206000209050919050565b60006020601f8301049050919050565b600082821b905092915050565b600060088302612e5e7fffffffffffffffffffffffffffffffffffffffffffffffffffffffffffffffff82612e21565b612e688683612e21565b95508019841693508086168417925050509392505050565b6000819050919050565b6000612ea5612ea0612e9b8461278b565b612e80565b61278b565b9050919050565b6000819050919050565b612ebf83612e8a565b612ed3612ecb82612eac565b848454612e2e565b825550505050565b600090565b612ee8612edb565b612ef3818484612eb6565b505050565b5b81811015612f1757612f0c600082612ee0565b600181019050612ef9565b5050565b601f821115612f5c57612f2d81612dfc565b612f3684612e11565b81016020851015612f45578190505b612f59612f5185612e11565b830182612ef8565b50505b505050565b600082821c905092915050565b6000612f7f60001984600802612f61565b1980831691505092915050565b6000612f988383612f6e565b9150826002028217905092915050565b612fb1826129eb565b67ffffffffffffffff811115612fca57612fc9612604565b5b612fd48254612dcb565b612fdf828285612f1b565b600060209050601f8311600181146130125760008415613000578287015190505b61300a8582612f8c565b865550613072565b601f19841661302086612dfc565b60005b8281101561304857848901518255600182019150602085019450602081019050613023565b868310156130655784890151613061601f891682612f6e565b8355505b6001600288020188555050505b505050505050565b7f524547495354455245442050415449454e5453204f4e4c590000000000000000600082015250565b60006130b06018836129f6565b91506130bb8261307a565b602082019050919050565b600060208201905081810360008301526130df816130a3565b9050919050565b60006040820190506130fb6000830185612a6a565b6131086020830184612a6a565b9392505050565b7f5245474953544552454420444f43544f5253204f4e4c59000000000000000000600082015250565b60006131456017836129f6565b91506131508261310f565b602082019050919050565b6000602082019050818103600083015261317481613138565b9050919050565b7f4f4e4c592041444d494e20495320414c4c4f5745440000000000000000000000600082015250565b60006131b16015836129f6565b91506131bc8261317b565b602082019050919050565b600060208201905081810360008301526131e0816131a4565b9050919050565b6000815490506131f681612dcb565b9050919050565b60008190508160005260206000209050919050565b8181036132205750506132f8565b613229826131e7565b67ffffffffffffffff81111561324257613241612604565b5b61324c8254612dcb565b613257828285612f1b565b6000601f8311600181146132865760008415613274578287015490505b61327e8582612f8c565b8655506132f1565b601f198416613294876131fd565b965061329f86612dfc565b60005b828110156132c7578489015482556001820191506001850194506020810190506132a2565b868310156132e457848901546132e0601f891682612f6e565b8355505b6001600288020188555050505b5050505050505b565b7f50415449454e5453204f52204143434553535f4752414e5445445f444f43544f60008201527f5253204f4e4c5900000000000000000000000000000000000000000000000000602082015250565b60006133566027836129f6565b9150613361826132fa565b604082019050919050565b6000602082019050818103600083015261338581613349565b9050919050565b7f445220414343455353204e4f54204752414e5445440000000000000000000000600082015250565b60006133c26015836129f6565b91506133cd8261338c565b602082019050919050565b600060208201905081810360008301526133f1816133b5565b905091905056fea264697066735822122088755025aec79ceb229c7fb7667cdba42bfa6969c35e5ca833f6541a0946ee7a64736f6c63430008110033",
  "linkReferences": {},
  "deployedLinkReferences": {}
}